:0300000002029D5C
:0C029D00787FE4F6D8FD7581130202E4BE
:10038400C0F9A4B0999282F880908883C6A1868E21
:10036D00060AFFFFFFFFFFFF02080000021000005A
:06037D0001130001120053
:10013100D2A9D2AFC291D28C758901E512B401FB6B
:10014100E4F5120509E50970020508AE08FF7C0017
:100151007D0A12000E74842DF58274033CF583E44C
:1001610093F50AAE08AF097C007D0A12000E7C00EF
:100171007D0A12000E74842DF58274033CF583E42C
:1001810093F50BAE08AF097C007D6412000E7C0074
:100191007D0A12000E74842DF58274033CF583E40C
:1001A10093F50CAE08AF097C037DE812000E7C00CC
:1001B1007D0A12000E74842DF58274033CF583E4EC
:1001C10093F50DAE08AF097C277D1012000E7C005F
:1001D1007D0A12000E74842DF58274033CF583E4CC
:1001E10093F50EAE08AF09E4FCFD7BA07A86790198
:1001F100F8120329E47B0AFAF9F812032974842B13
:0E020100F58274033AF583E493F50F02013C95
:03000B0002020FDF
:10020F00C0E0C0D0758CF3758A400511E5117002FE
:10021F000510D394E8E5109403400975100075118B
:10022F00007512017580FFE51314601D146027140B
:10023F00603114603B1460452405704DD2A0C2A1FB
:10024F00D2A20513850A808040C2A0C2A1D2A20506
:10025F0013850B808033D2A0D2A1C2A20513850CC7
:10026F00808026C2A0D2A1C2A20513850D8080195D
:10027F00D2A0C2A1C2A20513850E80800CC2A0C25B
:0E028F00A1C2A2751300850F80D0D0D0E0323E
:1002A900020131E493A3F8E493A34003F68001F239
:1002B90008DFF48029E493A3F85407240CC8C33356
:1002C900C4540F4420C8834004F456800146F6DF25
:1002D900E4800B010204081020408090036DE47E45
:1002E900019360BCA3FF543F30E509541FFEE4931A
:1002F900A360010ECF54C025E060A840B8E493A3E1
:10030900FAE493A3F8E493A3C8C582C8CAC583CA0B
:10031900F0A3C8C582C8CAC583CADFE9DEE780BEC3
:010383000079
:10000E00BC000BBE0029EF8DF084FFADF022E4CCD6
:10001E00F875F008EF2FFFEE33FEEC33FCEE9DEC9F
:10002E00984005FCEE9DFE0FD5F0E9E4CEFD22EDE5
:10003E00F8F5F0EE8420D21CFEADF075F008EF2F2F
:10004E00FFED33FD4007985006D5F0F222C398FD20
:05005E000FD5F0EA22BD
:10032900C2D5E830E70FB2D5E4C39BFBE49AFAE4FF
:1003390099F9E498F8EC30E717B2D512035F120087
:100349009FE4C39BFBE49AFAE499F9E498F88003E3
:1003590012009F30D50DE4C39FFFE49EFEE49DFD8E
:04036900E49CFC22F2
:1000630075F008758200EF2FFFEE33FECD33CDCC54
:1000730033CCC58233C5829BED9AEC99E5829840D7
:100083000CF582EE9BFEED9AFDEC99FC0FD5F0D6B4
:10009300E4CEFBE4CDFAE4CCF9A88222B800C1B9DE
:1000A3000059BA002DEC8BF084CFCECDFCE5F0CB1C
:1000B300F97818EF2FFFEE33FEED33FDEC33FCEB55
:1000C30033FB10D703994004EB99FB0FD8E5E4F910
:1000D300FA227818EF2FFFEE33FEED33FDEC33FCFD
:1000E300C933C910D7059BE99A4007EC9BFCE99AF1
:1000F300F90FD8E0E4C9FAE4CCFB2275F010EF2F36
:10010300FFEE33FEED33FDCC33CCC833C810D70735
:100113009BEC9AE899400AED9BFDEC9AFCE899F870
:0E0123000FD5F0DAE4CDFBE4CCFAE4C8F92203
:00000001FF
