:03000000020244B5
:0C024400787FE4F6D8FD75812B02028B58
:1004AB00050A0F14191E23282D32373C41464B5099
:0304BB00555A5F30
:05000300012100C10015
:1003A100750B00750A3075092A750800E4FCFDAB70
:1003B1000BAA0AA909A808120114E47BE87A03F937
:1003C100F812019F8F0B8E0A8D098C08C3740C954E
:1003D1000BF50BE4950AF50A74019509F509E49505
:1003E10008F508AF0BAE0AAD09FC78081202318F8F
:0B03F10023850B25758910D2ABD28E3E
:0103FC0022DE
:10047E00C291C2A0D2A1D2A27D0A7F2C1203407FCC
:08048E00F47E011203A180FEBF
:020340008D0826
:10034200AB07E4FAF9F8FF7E307D2AFC1203FD8F39
:10035200298E288D278C26AF08E4FCFDFEAB29AA46
:1003620028A927A826120114E47B64FAF9F81201DD
:100372009FC3740C9FFFE49EAD07FCC3E5299DFF5C
:10038200E5289CFEC3740C9FFFE49EAB078C2A8D6C
:0E0392002BF5228B24758901D2AFD2A9D28C13
:0103A000223A
:10044100E4FCFDFEAB29AA28A927A826120114E481
:100451007B64FAF9F812019FC3740C9FFFE49EAD0F
:1004610007FCC3E5299DFFE5289CFEC3740C9FFF93
:0C047100E49EAB078C2A8D2BF5228B2417
:01047D00225C
:03000B0002049656
:1004960030930985228C85248AC29332852A8C85DD
:0504A6002B8AD2933205
:03001B000202D00E
:1002D000C0E0C0F0C083C082C0D075D000C000C0F4
:0D02E00001C002C003C004C005C006C00775
:1002ED00780C7C007D007BFF7A0479AB7E007F1358
:1002FD001200EE85238D85258B740C2521F8E6FFE4
:10030D0012044120000D0521E521C394124009D2AC
:08031D00008005D52102C20099
:10032500D007D006D005D004D003D002D001D0002C
:0B033500D0D0D082D083D0F0D0E032D6
:1002500002047EE493A3F8E493A34003F68001F242
:1002600008DFF48029E493A3F85407240CC8C333AF
:10027000C4540F4420C8834004F456800146F6DF7E
:10028000E4800B0102040810204080900003E47E0B
:10029000019360BCA3FF543F30E509541FFEE49373
:1002A000A360010ECF54C025E060A840B8E493A33A
:1002B000FAE493A3F8E493A3C8C582C8CAC583CA65
:1002C000F0A3C8C582C8CAC583CADFE9DEE780BE1D
:0100080000F7
:10001E00E709F608DFFA8046E709F208DFFA803EC4
:10002E0088828C83E709F0A3DFFA8032E309F608B1
:10003E00DFFA8078E309F208DFFA807088828C8319
:10004E00E309F0A3DFFA806489828A83E0A3F608CD
:10005E00DFFA805889828A83E0A3F208DFFA804CA7
:10006E0080D280FA80C680D4806980F2803380107E
:10007E0080A680EA809A80A880DA80E280CA8033E7
:10008E0089828A83ECFAE493A3C8C582C8CCC5835F
:10009E00CCF0A3C8C582C8CCC583CCDFE9DEE7802F
:1000AE000D89828A83E493A3F608DFF9ECFAA9F0AE
:1000BE00EDFB2289828A83ECFAE0A3C8C582C8CC04
:1000CE00C583CCF0A3C8C582C8CCC583CCDFEADE1D
:1000DE00E880DB89828A83E493A3F208DFF980CC7F
:1000EE0088F0EF60010E4E60C388F0ED2402B40478
:1000FE000050B9F582EB2402B4040050AF2323451F
:06010E00822390006E73D5
:10011400E88FF0A4CC8BF0A42CFCE98EF0A42CFC8A
:100124008AF0EDA42CFCEA8EF0A4CDA8F08BF0A408
:100134002DCC3825F0FDE98FF0A42CCD35F0FCEB67
:100144008EF0A4FEA9F0EB8FF0A4CFC5F02ECD392C
:0F015400FEE43CFCEAA42DCE35F0FDE43CFC2299
:1001630075F008758200EF2FFFEE33FECD33CDCC53
:1001730033CCC58233C5829BED9AEC99E5829840D6
:100183000CF582EE9BFEED9AFDEC99FC0FD5F0D6B3
:10019300E4CEFBE4CDFAE4CCF9A88222B800C1B9DD
:1001A3000059BA002DEC8BF084CFCECDFCE5F0CB1B
:1001B300F97818EF2FFFEE33FEED33FDEC33FCEB54
:1001C30033FB10D703994004EB99FB0FD8E5E4F90F
:1001D300FA227818EF2FFFEE33FEED33FDEC33FCFC
:1001E300C933C910D7059BE99A4007EC9BFCE99AF0
:1001F300F90FD8E0E4C9FAE4CCFB2275F010EF2F35
:10020300FFEE33FEED33FDCC33CCC833C810D70734
:100213009BEC9AE899400AED9BFDEC9AFCE899F86F
:0E0223000FD5F0DAE4CDFBE4CCFAE4C8F92202
:1003FD00C2D5E830E70FB2D5E4C39BFBE49AFAE42B
:10040D0099F9E498F8EC30E717B2D51204331201DC
:10041D009FE4C39BFBE49AFAE499F9E498F880030E
:10042D0012019F30D50DE4C39FFFE49EFEE49DFDB8
:04043D00E49CFC221D
:10023100E8600FECC313FCED13FDEE13FEEF13FFAB
:03024100D8F122CF
:00000001FF
