:03000000020239C0
:0C023900787FE4F6D8FD7581100201D03A
:0B020C00120217C2AFC2A9C28CD28040
:0C0217007F7F7E127D6BDDFEDEFCDFFAD7
:0102230022B8
:1001D000C291C2A0D2A1D2A27D0A7F1E12012B120F
:1001E000020C7D1E7F1E12012B12020C7D327F1E1F
:1001F00012012B12020C7D467F1E12012B12020CE3
:0C0200007D5A7F1E12012B12020C80CCD4
:02012B008D083D
:10012D00AB07E4FAF9F8FF7E307D2AFC12018C8FC3
:10013D000C8E0B8D0A8C09AF08E4FCFDFEAB0CAAEE
:10014D000BA90AA80912000EE47B64FAF9F8120053
:10015D0099C3740C9FFFE49EAD07FCC3E50C9DFF96
:10016D00E50B9CFEC3740C9FFFE49EAB078C0F8DBB
:0E017D0010F50D8B0E758901D2AFD2A9D28C70
:01018B002251
:03000B00020224CA
:10022400308009850D8C850E8AC28032850F8C85BD
:05023400108AD28032A7
:10000E00E88FF0A4CC8BF0A42CFCE98EF0A42CFC91
:10001E008AF0EDA42CFCEA8EF0A4CDA8F08BF0A40F
:10002E002DCC3825F0FDE98FF0A42CCD35F0FCEB6E
:10003E008EF0A4FEA9F0EB8FF0A4CFC5F02ECD3933
:0F004E00FEE43CFCEAA42DCE35F0FDE43CFC22A0
:10005D0075F008758200EF2FFFEE33FECD33CDCC5A
:10006D0033CCC58233C5829BED9AEC99E5829840DD
:10007D000CF582EE9BFEED9AFDEC99FC0FD5F0D6BA
:10008D00E4CEFBE4CDFAE4CCF9A88222B800C1B9E4
:10009D000059BA002DEC8BF084CFCECDFCE5F0CB22
:1000AD00F97818EF2FFFEE33FEED33FDEC33FCEB5B
:1000BD0033FB10D703994004EB99FB0FD8E5E4F916
:1000CD00FA227818EF2FFFEE33FEED33FDEC33FC03
:1000DD00C933C910D7059BE99A4007EC9BFCE99AF7
:1000ED00F90FD8E0E4C9FAE4CCFB2275F010EF2F3C
:1000FD00FFEE33FEED33FDCC33CCC833C810D7073C
:10010D009BEC9AE899400AED9BFDEC9AFCE899F876
:0E011D000FD5F0DAE4CDFBE4CCFAE4C8F92209
:10018C00C2D5E830E70FB2D5E4C39BFBE49AFAE49E
:10019C0099F9E498F8EC30E717B2D51201C21200C5
:1001AC0099E4C39BFBE49AFAE499F9E498F8800388
:1001BC0012009930D50DE4C39FFFE49EFEE49DFD33
:0401CC00E49CFC2291
:00000001FF
