:0300000002017486
:0C017400787FE4F6D8FD75810902014C8B
:0C0167007F657EDB7DBCDDFEDEFCDFFA88
:010173002269
:10014C00758901D2AF7FA07E0F1201201201677F4B
:0B015C00E87E0312012012016780EA18
:10012000EF25E0FFEE33AB07FAE4F9F8FF7E307D10
:100130002AFC1200DCC3E49FFFE49EAD07F5088DA6
:0B01400009758CFF758AFED2A9D28CD5
:01014B002291
:05000300C2A9C28C221D
:03000B000201806F
:0901800085088C85098AB29332CE
:1000DC00C2D5E830E70FB2D5E4C39BFBE49AFAE44F
:1000EC0099F9E498F8EC30E717B2D5120112120026
:1000FC004AE4C39BFBE49AFAE499F9E498F8800388
:10010C0012004A30D50DE4C39FFFE49EFEE49DFD32
:04011C00E49CFC2241
:10000E0075F008758200EF2FFFEE33FECD33CDCCA9
:10001E0033CCC58233C5829BED9AEC99E58298402C
:10002E000CF582EE9BFEED9AFDEC99FC0FD5F0D609
:10003E00E4CEFBE4CDFAE4CCF9A88222B800C1B933
:10004E000059BA002DEC8BF084CFCECDFCE5F0CB71
:10005E00F97818EF2FFFEE33FEED33FDEC33FCEBAA
:10006E0033FB10D703994004EB99FB0FD8E5E4F965
:10007E00FA227818EF2FFFEE33FEED33FDEC33FC52
:10008E00C933C910D7059BE99A4007EC9BFCE99A46
:10009E00F90FD8E0E4C9FAE4CCFB2275F010EF2F8B
:1000AE00FFEE33FEED33FDCC33CCC833C810D7078B
:1000BE009BEC9AE899400AED9BFDEC9AFCE899F8C6
:0E00CE000FD5F0DAE4CDFBE4CCFAE4C8F92259
:00000001FF
