:03000000020457A0
:0C045700787FE4F6D8FD75811502049E44
:1004FC00C0F9A4B0999282F880908883C6A1868EA8
:1004E300060CFFFFFFFFFFFF0408000000000212DD
:0804F3000000011500011400D6
:10026200D2A9D2AFC291D28C758901E514B401FB37
:10027200E4F514E50B2401F50BE4350AF50AE4353F
:1002820009F509E43508F508E47B0AFAF9F8AF0B39
:10029200AE0AAD09AC081203B474FC2BF5827404E7
:1002A2003AF583E493F50CE47B0AFAF9F8AF0BAE66
:1002B2000AAD09AC081203B4E47B0AFAF9F8120396
:1002C200B474FC2BF58274043AF583E493F50DE4DF
:1002D2007B64FAF9F8AF0BAE0AAD09AC081203B4AD
:1002E200E47B0AFAF9F81203B474FC2BF582740465
:1002F2003AF583E493F50EE47BE87A03F9F8AF0B61
:10030200AE0AAD09AC081203B4E47B0AFAF9F8129A
:1003120003B474FC2BF58274043AF583E493F50F6D
:10032200E47B107A27F9F8AF0BAE0AAD09AC0812DC
:1003320003B4E47B0AFAF9F81203B474FC2BF582D5
:1003420074043AF583E493F5107BA07A86790178F8
:1003520000AF0BAE0AAD09AC081203B4E47B0AFA93
:10036200F9F81203B474FC2BF58274043AF583E4B1
:0603720093F51102026D7B
:03000B0002000EE2
:10000E00C0E0C0F0C083C082C0D075D000C000C0B8
:10001E0001C002C003C004C005C006C007758CF342
:10002E00758A400513E51370020512D394E8E512A4
:10003E00940340097512007513007514017580FF45
:10004E00E4FFFEFDFCAB0BAA0AA909A808C3120423
:10005E00464020E47F0AFEFDFCA808120446501319
:10006E00E5156003020247D2A0C2A1D2A275150007
:10007E00020202E47F0AFEFDFCAB0BAA0AA909A844
:10008E0008C3120446402FE47F64FEFDFCA808124C
:10009E0004465022E515146011046003020247D293
:1000AE00A0C2A1D2A20515020202C2A0C2A1D2A272
:1000BE0075150002020FE47F64FEFDFCAB0BAA0A6D
:1000CE00A909A808C3120446403FE47FE87E03FD59
:1000DE00FCA8081204465031E51514601514601D75
:1000EE0024026003020247D2A0C2A1D2A2051502C9
:1000FE000202C2A0C2A1D2A2051502020FD2A0D244
:10010E00A1C2A275150002021CE47FE87E03FDFC6D
:10011E00AB0BAA0AA909A808C3120446404DE47FF6
:10012E00107E27FDFCA808120446503FE51514600A
:10013E001814602014602824036003020247D2A022
:10014E00C2A1D2A20515020202C2A0C2A1D2A2056C
:10015E001502020FD2A0D2A1C2A2051502021CC224
:10016E00A0D2A1C2A2751500020229E47F107E273B
:10017E00FDFCAB0BAA0AA909A808C31204464057F6
:10018E007FA07E867D017C00A8081204465048E5BB
:10019E001514601A14602114602814602F24046052
:1001AE0003020247D2A0C2A1D2A205158046C2A068
:1001BE00C2A1D2A205158049D2A0D2A1C2A2051514
:1001CE00804CC2A0D2A1C2A20515804FD2A0C2A15E
:1001DE00C2A27515008051E51514601D1460271418
:1001EE00603114603B1460452405704DD2A0C2A14D
:1001FE00D2A20515850C808040C2A0C2A1D2A20554
:10020E0015850D808033D2A0D2A1C2A20515850E10
:10021E00808026C2A0D2A1C2A20515850F808019AA
:10022E00D2A0C2A1C2A20515851080800CC2A0C2A8
:10023E00A1C2A2751500851180D007D006D005D0B9
:10024E0004D003D002D001D000D0D0D082D083D041
:04025E00F0D0E032CA
:10046300020262E493A3F8E493A34003F68001F24B
:1004730008DFF48029E493A3F85407240CC8C3339A
:10048300C4540F4420C8834004F456800146F6DF69
:10049300E4800B01020408102040809004E3E47E12
:1004A300019360BCA3FF543F30E509541FFEE4935E
:1004B300A360010ECF54C025E060A840B8E493A325
:1004C300FAE493A3F8E493A3C8C582C8CAC583CA50
:1004D300F0A3C8C582C8CAC583CADFE9DEE780BE08
:0104FB000000
:1003780075F008758200EF2FFFEE33FECD33CDCC3C
:1003880033CCC58233C5829BED9AEC99E5829840BF
:100398000CF582EE9BFEED9AFDEC99FC0FD5F0D69C
:1003A800E4CEFBE4CDFAE4CCF9A88222B800C1B9C6
:1003B8000059BA002DEC8BF084CFCECDFCE5F0CB04
:1003C800F97818EF2FFFEE33FEED33FDEC33FCEB3D
:1003D80033FB10D703994004EB99FB0FD8E5E4F9F8
:1003E800FA227818EF2FFFEE33FEED33FDEC33FCE5
:1003F800C933C910D7059BE99A4007EC9BFCE99AD9
:10040800F90FD8E0E4C9FAE4CCFB2275F010EF2F1D
:10041800FFEE33FEED33FDCC33CCC833C810D7071D
:100428009BEC9AE899400AED9BFDEC9AFCE899F858
:0E0438000FD5F0DAE4CDFBE4CCFAE4C8F922EB
:10044600EB9FF5F0EA9E42F0E99D42F0E89C45F00C
:010456002283
:00000001FF
