:0300000002000EED
:0C000E00787FE4F6D8FD758120020055D3
:10010F00C0F9A4B0999282F880908883C6A1868E98
:05000300C1800108FFAF
:10009A00D201E4FF758901D28C758CF5758A32D24A
:1000AA00AFD2A9C291D2A0C2A1D2A290010F93F558
:1000BA0080C2A7D2A3A200300101B350F8A20092D5
:1000CA00012001F10FEFD394094002E4FFEF900100
:0600DA000F93F58080DFAA
:03000B000200E010
:0900E000C0E0C0D075D000C007DB
:1000E900758CF5758A32E50825E0FFA2A3E4334F44
:0F00F900F508B4FF04D2008006E5087002C200CB
:07010800D007D0D0D0E03297
:10001A0002009AE493A3F8E493A34003F68001F262
:10002A0008DFF48029E493A3F85407240CC8C333E7
:10003A00C4540F4420C8834004F456800146F6DFB6
:10004A00E4800B0102040810204080900003E47E43
:10005A00019360BCA3FF543F30E509541FFEE493AB
:10006A00A360010ECF54C025E060A840B8E493A372
:10007A00FAE493A3F8E493A3C8C582C8CAC583CA9D
:10008A00F0A3C8C582C8CAC583CADFE9DEE780BE55
:0100080000F7
:00000001FF
